{
  "_format": "hh-sol-artifact-1",
  "contractName": "Transactions",
  "sourceName": "contracts/Transactions.sol",
  "abi": [
    {
      "anonymous": false,
      "inputs": [
        {
          "indexed": false,
          "internalType": "address",
          "name": "from",
          "type": "address"
        },
        {
          "indexed": false,
          "internalType": "address",
          "name": "receiver",
          "type": "address"
        },
        {
          "indexed": false,
          "internalType": "uint256",
          "name": "amount",
          "type": "uint256"
        },
        {
          "indexed": false,
          "internalType": "string",
          "name": "message",
          "type": "string"
        },
        {
          "indexed": false,
          "internalType": "uint256",
          "name": "timestamp",
          "type": "uint256"
        },
        {
          "indexed": false,
          "internalType": "string",
          "name": "keyword",
          "type": "string"
        }
      ],
      "name": "Transfer",
      "type": "event"
    },
    {
      "inputs": [
        {
          "internalType": "address payable",
          "name": "receiver",
          "type": "address"
        },
        {
          "internalType": "uint256",
          "name": "amount",
          "type": "uint256"
        },
        {
          "internalType": "string",
          "name": "message",
          "type": "string"
        },
        {
          "internalType": "string",
          "name": "keyword",
          "type": "string"
        }
      ],
      "name": "addToBlockchain",
      "outputs": [],
      "stateMutability": "nonpayable",
      "type": "function"
    },
    {
      "inputs": [],
      "name": "getAllTransaction",
      "outputs": [
        {
          "components": [
            {
              "internalType": "address",
              "name": "sender",
              "type": "address"
            },
            {
              "internalType": "address",
              "name": "receiver",
              "type": "address"
            },
            {
              "internalType": "uint256",
              "name": "amount",
              "type": "uint256"
            },
            {
              "internalType": "string",
              "name": "message",
              "type": "string"
            },
            {
              "internalType": "uint256",
              "name": "timestamp",
              "type": "uint256"
            },
            {
              "internalType": "string",
              "name": "keyword",
              "type": "string"
            }
          ],
          "internalType": "struct Transactions.TransferStruct[]",
          "name": "",
          "type": "tuple[]"
        }
      ],
      "stateMutability": "view",
      "type": "function"
    },
    {
      "inputs": [],
      "name": "getTransactionCount",
      "outputs": [
        {
          "internalType": "uint256",
          "name": "",
          "type": "uint256"
        }
      ],
      "stateMutability": "view",
      "type": "function"
    }
  ],
  "bytecode": "0x608060405234801561001057600080fd5b50610a33806100206000396000f3fe608060405234801561001057600080fd5b50600436106100415760003560e01c80632e7700f014610046578063add6415d14610064578063cc2d7ead14610082575b600080fd5b61004e61009e565b60405161005b9190610326565b60405180910390f35b61006c6100a3565b604051610079919061057c565b60405180910390f35b61009c60048036038101906100979190610751565b6100a8565b005b600090565b606090565b60016000808282546100ba919061081f565b9250508190555060016040518060c001604052803373ffffffffffffffffffffffffffffffffffffffff1681526020018673ffffffffffffffffffffffffffffffffffffffff16815260200185815260200184815260200142815260200183815250908060018154018082558091505060019003906000526020600020906006020160009091909190915060008201518160000160006101000a81548173ffffffffffffffffffffffffffffffffffffffff021916908373ffffffffffffffffffffffffffffffffffffffff16021790555060208201518160010160006101000a81548173ffffffffffffffffffffffffffffffffffffffff021916908373ffffffffffffffffffffffffffffffffffffffff1602179055506040820151816002015560608201518160030190805190602001906101f992919061026a565b506080820151816004015560a082015181600501908051906020019061022092919061026a565b5050507f416cfa4330a4565f45c2fd2dd4826a83a37443aba2ce6f79477c7355afac35fa33858585428660405161025c9695949392919061092d565b60405180910390a150505050565b828054610276906109cb565b90600052602060002090601f01602090048101928261029857600085556102df565b82601f106102b157805160ff19168380011785556102df565b828001600101855582156102df579182015b828111156102de5782518255916020019190600101906102c3565b5b5090506102ec91906102f0565b5090565b5b808211156103095760008160009055506001016102f1565b5090565b6000819050919050565b6103208161030d565b82525050565b600060208201905061033b6000830184610317565b92915050565b600081519050919050565b600082825260208201905092915050565b6000819050602082019050919050565b600073ffffffffffffffffffffffffffffffffffffffff82169050919050565b60006103988261036d565b9050919050565b6103a88161038d565b82525050565b6103b78161030d565b82525050565b600081519050919050565b600082825260208201905092915050565b60005b838110156103f75780820151818401526020810190506103dc565b83811115610406576000848401525b50505050565b6000601f19601f8301169050919050565b6000610428826103bd565b61043281856103c8565b93506104428185602086016103d9565b61044b8161040c565b840191505092915050565b600060c08301600083015161046e600086018261039f565b506020830151610481602086018261039f565b50604083015161049460408601826103ae565b50606083015184820360608601526104ac828261041d565b91505060808301516104c160808601826103ae565b5060a083015184820360a08601526104d9828261041d565b9150508091505092915050565b60006104f28383610456565b905092915050565b6000602082019050919050565b600061051282610341565b61051c818561034c565b93508360208202850161052e8561035d565b8060005b8581101561056a578484038952815161054b85826104e6565b9450610556836104fa565b925060208a01995050600181019050610532565b50829750879550505050505092915050565b600060208201905081810360008301526105968184610507565b905092915050565b6000604051905090565b600080fd5b600080fd5b60006105bd8261036d565b9050919050565b6105cd816105b2565b81146105d857600080fd5b50565b6000813590506105ea816105c4565b92915050565b6105f98161030d565b811461060457600080fd5b50565b600081359050610616816105f0565b92915050565b600080fd5b600080fd5b7f4e487b7100000000000000000000000000000000000000000000000000000000600052604160045260246000fd5b61065e8261040c565b810181811067ffffffffffffffff8211171561067d5761067c610626565b5b80604052505050565b600061069061059e565b905061069c8282610655565b919050565b600067ffffffffffffffff8211156106bc576106bb610626565b5b6106c58261040c565b9050602081019050919050565b82818337600083830152505050565b60006106f46106ef846106a1565b610686565b9050828152602081018484840111156107105761070f610621565b5b61071b8482856106d2565b509392505050565b600082601f8301126107385761073761061c565b5b81356107488482602086016106e1565b91505092915050565b6000806000806080858703121561076b5761076a6105a8565b5b6000610779878288016105db565b945050602061078a87828801610607565b935050604085013567ffffffffffffffff8111156107ab576107aa6105ad565b5b6107b787828801610723565b925050606085013567ffffffffffffffff8111156107d8576107d76105ad565b5b6107e487828801610723565b91505092959194509250565b7f4e487b7100000000000000000000000000000000000000000000000000000000600052601160045260246000fd5b600061082a8261030d565b91506108358361030d565b9250827fffffffffffffffffffffffffffffffffffffffffffffffffffffffffffffffff0382111561086a576108696107f0565b5b828201905092915050565b61087e8161038d565b82525050565b6000819050919050565b60006108a96108a461089f8461036d565b610884565b61036d565b9050919050565b60006108bb8261088e565b9050919050565b60006108cd826108b0565b9050919050565b6108dd816108c2565b82525050565b600082825260208201905092915050565b60006108ff826103bd565b61090981856108e3565b93506109198185602086016103d9565b6109228161040c565b840191505092915050565b600060c0820190506109426000830189610875565b61094f60208301886108d4565b61095c6040830187610317565b818103606083015261096e81866108f4565b905061097d6080830185610317565b81810360a083015261098f81846108f4565b9050979650505050505050565b7f4e487b7100000000000000000000000000000000000000000000000000000000600052602260045260246000fd5b600060028204905060018216806109e357607f821691505b602082108114156109f7576109f661099c565b5b5091905056fea26469706673582212206de9d111a4e837079a1beae2bfe53ce2469f7beaba3af7f3d0b6f6423f1aeab964736f6c63430008090033",
  "linkReferences": {},
  "deployedLinkReferences": {}
}