{
  "_format": "hh-sol-artifact-1",
  "contractName": "Transactions",
  "sourceName": "contracts/Transactions.sol",
  "abi": [
    {
      "anonymous": false,
      "inputs": [
        {
          "indexed": false,
          "internalType": "address",
          "name": "from",
          "type": "address"
        },
        {
          "indexed": false,
          "internalType": "address",
          "name": "receiver",
          "type": "address"
        },
        {
          "indexed": false,
          "internalType": "uint256",
          "name": "amount",
          "type": "uint256"
        },
        {
          "indexed": false,
          "internalType": "string",
          "name": "message",
          "type": "string"
        },
        {
          "indexed": false,
          "internalType": "uint256",
          "name": "timestamp",
          "type": "uint256"
        },
        {
          "indexed": false,
          "internalType": "string",
          "name": "keyword",
          "type": "string"
        }
      ],
      "name": "Transfer",
      "type": "event"
    },
    {
      "inputs": [
        {
          "internalType": "address payable",
          "name": "receiver",
          "type": "address"
        },
        {
          "internalType": "uint256",
          "name": "amount",
          "type": "uint256"
        },
        {
          "internalType": "string",
          "name": "message",
          "type": "string"
        },
        {
          "internalType": "string",
          "name": "keyword",
          "type": "string"
        }
      ],
      "name": "addToBlockchain",
      "outputs": [],
      "stateMutability": "nonpayable",
      "type": "function"
    },
    {
      "inputs": [],
      "name": "getAllTransaction",
      "outputs": [
        {
          "components": [
            {
              "internalType": "address",
              "name": "sender",
              "type": "address"
            },
            {
              "internalType": "address",
              "name": "receiver",
              "type": "address"
            },
            {
              "internalType": "uint256",
              "name": "amount",
              "type": "uint256"
            },
            {
              "internalType": "string",
              "name": "message",
              "type": "string"
            },
            {
              "internalType": "uint256",
              "name": "timestamp",
              "type": "uint256"
            },
            {
              "internalType": "string",
              "name": "keyword",
              "type": "string"
            }
          ],
          "internalType": "struct Transactions.TransferStruct[]",
          "name": "",
          "type": "tuple[]"
        }
      ],
      "stateMutability": "view",
      "type": "function"
    },
    {
      "inputs": [],
      "name": "getTransactionCount",
      "outputs": [
        {
          "internalType": "uint256",
          "name": "",
          "type": "uint256"
        }
      ],
      "stateMutability": "view",
      "type": "function"
    },
    {
      "inputs": [],
      "name": "pesova",
      "outputs": [
        {
          "internalType": "uint256",
          "name": "",
          "type": "uint256"
        }
      ],
      "stateMutability": "view",
      "type": "function"
    }
  ],
  "bytecode": "0x6080604052600360015534801561001557600080fd5b50610ca8806100256000396000f3fe608060405234801561001057600080fd5b506004361061004c5760003560e01c80632e7700f0146100515780637fd5aeb11461006f578063add6415d1461008d578063cc2d7ead146100ab575b600080fd5b6100596100c7565b604051610066919061059b565b60405180910390f35b6100776100d0565b604051610084919061059b565b60405180910390f35b6100956100da565b6040516100a291906107f1565b60405180910390f35b6100c560048036038101906100c091906109c6565b61031d565b005b60008054905090565b6000600154905090565b60606002805480602002602001604051908101604052809291908181526020016000905b8282101561031457838290600052602060002090600602016040518060c00160405290816000820160009054906101000a900473ffffffffffffffffffffffffffffffffffffffff1673ffffffffffffffffffffffffffffffffffffffff1673ffffffffffffffffffffffffffffffffffffffff1681526020016001820160009054906101000a900473ffffffffffffffffffffffffffffffffffffffff1673ffffffffffffffffffffffffffffffffffffffff1673ffffffffffffffffffffffffffffffffffffffff168152602001600282015481526020016003820180546101e790610a94565b80601f016020809104026020016040519081016040528092919081815260200182805461021390610a94565b80156102605780601f1061023557610100808354040283529160200191610260565b820191906000526020600020905b81548152906001019060200180831161024357829003601f168201915b505050505081526020016004820154815260200160058201805461028390610a94565b80601f01602080910402602001604051908101604052809291908181526020018280546102af90610a94565b80156102fc5780601f106102d1576101008083540402835291602001916102fc565b820191906000526020600020905b8154815290600101906020018083116102df57829003601f168201915b505050505081525050815260200190600101906100fe565b50505050905090565b600160008082825461032f9190610af5565b9250508190555060026040518060c001604052803373ffffffffffffffffffffffffffffffffffffffff1681526020018673ffffffffffffffffffffffffffffffffffffffff16815260200185815260200184815260200142815260200183815250908060018154018082558091505060019003906000526020600020906006020160009091909190915060008201518160000160006101000a81548173ffffffffffffffffffffffffffffffffffffffff021916908373ffffffffffffffffffffffffffffffffffffffff16021790555060208201518160010160006101000a81548173ffffffffffffffffffffffffffffffffffffffff021916908373ffffffffffffffffffffffffffffffffffffffff16021790555060408201518160020155606082015181600301908051906020019061046e9291906104df565b506080820151816004015560a08201518160050190805190602001906104959291906104df565b5050507f416cfa4330a4565f45c2fd2dd4826a83a37443aba2ce6f79477c7355afac35fa3385858542866040516104d196959493929190610c03565b60405180910390a150505050565b8280546104eb90610a94565b90600052602060002090601f01602090048101928261050d5760008555610554565b82601f1061052657805160ff1916838001178555610554565b82800160010185558215610554579182015b82811115610553578251825591602001919060010190610538565b5b5090506105619190610565565b5090565b5b8082111561057e576000816000905550600101610566565b5090565b6000819050919050565b61059581610582565b82525050565b60006020820190506105b0600083018461058c565b92915050565b600081519050919050565b600082825260208201905092915050565b6000819050602082019050919050565b600073ffffffffffffffffffffffffffffffffffffffff82169050919050565b600061060d826105e2565b9050919050565b61061d81610602565b82525050565b61062c81610582565b82525050565b600081519050919050565b600082825260208201905092915050565b60005b8381101561066c578082015181840152602081019050610651565b8381111561067b576000848401525b50505050565b6000601f19601f8301169050919050565b600061069d82610632565b6106a7818561063d565b93506106b781856020860161064e565b6106c081610681565b840191505092915050565b600060c0830160008301516106e36000860182610614565b5060208301516106f66020860182610614565b5060408301516107096040860182610623565b50606083015184820360608601526107218282610692565b91505060808301516107366080860182610623565b5060a083015184820360a086015261074e8282610692565b9150508091505092915050565b600061076783836106cb565b905092915050565b6000602082019050919050565b6000610787826105b6565b61079181856105c1565b9350836020820285016107a3856105d2565b8060005b858110156107df57848403895281516107c0858261075b565b94506107cb8361076f565b925060208a019950506001810190506107a7565b50829750879550505050505092915050565b6000602082019050818103600083015261080b818461077c565b905092915050565b6000604051905090565b600080fd5b600080fd5b6000610832826105e2565b9050919050565b61084281610827565b811461084d57600080fd5b50565b60008135905061085f81610839565b92915050565b61086e81610582565b811461087957600080fd5b50565b60008135905061088b81610865565b92915050565b600080fd5b600080fd5b7f4e487b7100000000000000000000000000000000000000000000000000000000600052604160045260246000fd5b6108d382610681565b810181811067ffffffffffffffff821117156108f2576108f161089b565b5b80604052505050565b6000610905610813565b905061091182826108ca565b919050565b600067ffffffffffffffff8211156109315761093061089b565b5b61093a82610681565b9050602081019050919050565b82818337600083830152505050565b600061096961096484610916565b6108fb565b90508281526020810184848401111561098557610984610896565b5b610990848285610947565b509392505050565b600082601f8301126109ad576109ac610891565b5b81356109bd848260208601610956565b91505092915050565b600080600080608085870312156109e0576109df61081d565b5b60006109ee87828801610850565b94505060206109ff8782880161087c565b935050604085013567ffffffffffffffff811115610a2057610a1f610822565b5b610a2c87828801610998565b925050606085013567ffffffffffffffff811115610a4d57610a4c610822565b5b610a5987828801610998565b91505092959194509250565b7f4e487b7100000000000000000000000000000000000000000000000000000000600052602260045260246000fd5b60006002820490506001821680610aac57607f821691505b60208210811415610ac057610abf610a65565b5b50919050565b7f4e487b7100000000000000000000000000000000000000000000000000000000600052601160045260246000fd5b6000610b0082610582565b9150610b0b83610582565b9250827fffffffffffffffffffffffffffffffffffffffffffffffffffffffffffffffff03821115610b4057610b3f610ac6565b5b828201905092915050565b610b5481610602565b82525050565b6000819050919050565b6000610b7f610b7a610b75846105e2565b610b5a565b6105e2565b9050919050565b6000610b9182610b64565b9050919050565b6000610ba382610b86565b9050919050565b610bb381610b98565b82525050565b600082825260208201905092915050565b6000610bd582610632565b610bdf8185610bb9565b9350610bef81856020860161064e565b610bf881610681565b840191505092915050565b600060c082019050610c186000830189610b4b565b610c256020830188610baa565b610c32604083018761058c565b8181036060830152610c448186610bca565b9050610c53608083018561058c565b81810360a0830152610c658184610bca565b905097965050505050505056fea2646970667358221220a81ef2f16cdbe79eea50fdd29277f83bbbc36c377c3e362dd9601b635a4cb7c064736f6c63430008090033",
  "linkReferences": {},
  "deployedLinkReferences": {}
}